:030000000200C03B
:0C00C000787FE4F6D8FD7581070200CCC3
:10005D00C2A07F107E271200A2C2A17F107E2712A0
:10006D0000A2C2A27F107E271200A2C2A37F107E23
:10007D00271200A2C2A47F107E271200A2C2A57F64
:10008D00107E271200A2C2A67F107E271200A2C2E8
:05009D00A77F107E2783
:0B00A200EF1FAC0670011E4C70F62230
:1000AD00E4FDE4F5A012009E75A0FF12009E0DBDAB
:0200BD0003F04E
:0100BF00221E
:1000030012005DD2A012009ED2A112009ED2A212B3
:10001300009ED2A312009ED2A412009ED2A512006B
:100023009ED2A612009ED2A712009E12005DD2A7F6
:1000330012009ED2A612009ED2A512009ED2A41236
:10004300009ED2A312009ED2A212009ED2A1120041
:0A0053009ED2A07F107E270200A2BB
:0800CC001200AD12000380F8E0
:00000001FF
