:10039C00C0F9A4B0999282F880908883C6A1868E09
:0103AC00FF51
:100383000814C0F9A4B0999282F8010B02010E007F
:08039300C101011C1E0112143E
:1002D200EF14600E1460111460172403701BC2A087
:1002E2008011D2A0C2A18004D2A0D2A1C2B6D2B73C
:0A02F20022D2A0D2A1D2B6C2B722D8
:10036300E4FDFCC3ED9FEC9E5015E4FBFA0BBB00D0
:0F037300010AEB646E4A70F50DBD00010C80E4C9
:010382002258
:10031F00E4F9E9C3950B50197580FFAF011202D2B2
:10032F00741429F8E6F5807F037E001203630980B9
:01033F00E1DC
:01034000229A
:0A03AD00D2AF758911D2A9D28C22BB
:10010500300115C201E50E700D30000585120E8017
:1001150003851C0EB200150EE50E75F00A1203419B
:10012500AFF0EF3395E0FE749C2FF58274033EF536
:1001350083E493FFF514E50E75F00A120341FD33D0
:1001450095E0FC749C2DF58274033CF583E493F5EE
:10015500158F16F517200036D3E50E64809485407B
:1001650011D2A4C2A3D2A2C2A7D2A6D2A5E4F50CED
:10017500801CD3E50E648094855013D2A4D2A3C20B
:10018500A7D2A6D2A5200204C2A28002D2A2300024
:1001950034D3E50E648094854010C2A4D2A3D2A2C4
:1001A500D2A7C2A6D2A5E4F50C22D3E50E648094AD
:1001B500855012C2A4D2A3D2A2D2A7D2A6200203EE
:0601C500C2A522D2A52212
:1002570075111443901FE590541F641F603A7F0186
:100267007E00120363E590541F641F602EE508B4F7
:100277000129E4F508E590541F24E9601724FC6080
:100287000F24FE60071470137511012275110222E5
:0B029700751103227511042275080187
:0102A2002239
:10000E00E51164047061050DE50DD394054003E41C
:10001E00F50DE50DB4010CC2A4D2A3D2A2C2A7D293
:10002E00A6D2A5E50DB4020CC2A4D2A3D2A2D2A729
:10003E00C2A6D2A5E50DB4030CD2A4C2A3D2A2C20D
:10004E00A7D2A6D2A5E50DB4040CD2A4C2A3D2A207
:10005E00D2A7C2A6D2A5E50DB4050CD2A4D2A3C2D6
:10006E00A2D2A7D2A6C2A5E511B4010C050FE50FC9
:10007E00C394034003E4F50FE50F64017039E511F5
:10008E00B4020C051CE51CD394634003751C63E598
:10009E0011B4030C151CE51CD3940A5003751C0AED
:1000AE00E51C75F00A84E5F090039C93F516E51CAB
:1000BE0075F00A8493F517E50F64027039E511B4F3
:1000CE00020C0512E512D394634003751263E51119
:1000DE00B4030C1512E512D3940A500375120AE5F7
:1000EE001275F00A84E5F090039C93F516E51275EF
:0700FE00F00A8493F51722BC
:1002FC001203AD85120E120257E511C3941450036C
:10030C0012000EE50F7007E50D70031201051203C4
:03031C001F80E35C
:03000B000202A34B
:0602A300C0E0C0F0C0D075
:1002A900758C3C758AB00509050CE50C75F00A8456
:1002B900E5F07002B202E509C3941440057509001E
:0202C900D20160
:0702CB00D0D0D0F0D0E032EA
:030000000201CB2F
:0C01CB00787FE4F6D8FD75812002021256
:10034100C2D530F707B2D563F0FF05F030E70CB244
:10035100D5F4048463F0FF05F080018430D502F404
:02036100042274
:1001D7000202FCE493A3F8E493A34003F68001F240
:1001E70008DFF48029E493A3F85407240CC8C33329
:1001F700C4540F4420C8834004F456800146F6DFF8
:10020700E4800B0102040810204080900383E47E01
:10021700019360BCA3FF543F30E509541FFEE493EC
:10022700A360010ECF54C025E060A840B8E493A3B3
:10023700FAE493A3F8E493A3C8C582C8CAC583CADE
:10024700F0A3C8C582C8CAC583CADFE9DEE780BE96
:01039B000061
:00000001FF
