:030000000200C03B
:0C00C000787FE4F6D8FD7581070200CCC3
:10005D00C2907F107E271200A2C2917F107E2712C0
:10006D0000A2C2927F107E271200A2C2937F107E43
:10007D00271200A2C2947F107E271200A2C2957F84
:10008D00107E271200A2C2967F107E271200A2C2F8
:05009D00977F107E2793
:0B00A200EF1FAC0670011E4C70F62230
:1000AD00E4FDE4F59012009E7590FF12009E0DBDCB
:0200BD0003F04E
:0100BF00221E
:1000030012005DD29012009ED29112009ED29212E3
:10001300009ED29312009ED29412009ED29512009B
:100023009ED29612009ED29712009E12005DD29726
:1000330012009ED29612009ED29512009ED2941266
:10004300009ED29312009ED29212009ED291120071
:0A0053009ED2907F107E270200A2CB
:0800CC001200AD12000380F8E0
:00000001FF
