:020000040800F2
:1000000020240020D101000853140008ED0A000844
:1000100051140008D7020008BD14000800000000B9
:10002000000000000000000000000000571400085D
:10003000D9020008000000005514000859140008F7
:10004000EB010008EB010008EB010008EB010008E0
:10005000EB010008EB010008EB010008EB010008D0
:10006000EB010008EB010008EB010008EB010008C0
:10007000EB010008EB010008EB010008EB010008B0
:10008000EB010008EB010008EB010008EB010008A0
:10009000EB010008EB010008EB010008EB01000890
:1000A000EB010008EB010008EB010008EB01000880
:1000B000EB010008EB010008EB010008EB01000870
:1000C000EB010008EB010008EB010008EB01000860
:1000D000EB010008EB010008EB010008EB01000850
:1000E000EB010008EB010008EB01000800F002F84A
:1000F00000F05EF80AA090E8000C82448344AAF164
:100100000107DA4501D100F053F8AFF2090EBAE861
:100110000F0013F0010F18BFFB1A43F0010318473B
:10012000343000005430000010F8013B0A4413F052
:10013000030408BF10F8014B1D1108BF10F8015B44
:10014000641E05D010F8016B641E01F8016BF9D133
:10015000002D15D010F8014B03F00C030C2BA1EB74
:1001600004040ABF10F8013BA4EB8314A4EB03249E
:1001700005F1010314F8016B5B1E01F8016BF9D561
:10018000914238BF10F8013BD1D3704700230024BF
:1001900000250026103A28BF78C1FBD8520728BF97
:1001A00030C148BF0B6070471FB51FBD10B510BDF3
:1001B00000F058F81146FFF7F7FF01F091F900F051
:1001C00076F803B4FFF7F2FF03BC00F07DF80000FF
:1001D0000948804709480047FEE7FEE7FEE7FEE7DB
:1001E000FEE7FEE7FEE7FEE7FEE7FEE70448054917
:1001F000054A064B70470000BB140008ED000008DC
:10020000201E00202024002020200020202000206C
:100210004FF0000200B5134694469646203922BF9F
:10022000A0E80C50A0E80C50B1F12001BFF4F7AFEA
:10023000090728BFA0E80C5048BF0CC05DF804EBCC
:10024000890028BF40F8042B08BF704748BF20F83A
:10025000022B11F0804F18BF00F8012B7047704738
:1002600070477047754600F02BF8AE4605006946AA
:10027000534620F00700854618B020B5FFF7B6FFBB
:10028000BDE820404FF000064FF000074FF0000897
:100290004FF0000B21F00701AC46ACE8C009ACE818
:1002A000C009ACE8C009ACE8C0098D46704710B57C
:1002B0000446AFF300802046BDE81040FFF781BF41
:1002C00000487047C01D002001491820ABBEFEE762
:1002D000260002007047FEE77047000070B5044634
:1002E00000F004F90546601C02D00448007804447C
:1002F00000F0FCF8401BA042FAD370BDB01D0020F6
:100300002DE9F84FDFF8B891002409F1040A0AF149
:10031000040B23460F270BF1040EC9E00125A5406D
:100320002A40AA427DD1674ED1F804C0ACEB060842
:10033000B44532D014DCBCF1030F3AD009DCBCF177
:10034000000F2AD0BCF1010F1CD0BCF1020F31D13B
:100350001DE0BCF1110F17D0BCF1120F2AD119E02A
:10036000B8F5881F19D006DCB8F5803F15D0B8F570
:10037000801F1FD111E0B8F5001F0ED0B8F5041F83
:1003800018D10AE0CB6815E0CB681B1D12E0CB68E2
:1003900008330FE0CB680C330CE08B682BB1012BDA
:1003A0004FF0080303D0456104E0042302E0056137
:1003B00000E00023FF2A01D8064601E000F1040610
:1003C0004FEA840501D9A5F12005D6F8008007FA87
:1003D00005FC28EA0C0803FA05F548EA0508C6F802
:1003E00000804D68ED0062D5374DAE6946F00106DC
:1003F000AE61AD6924F0030605F001050095334DAB
:1004000006EB050CDCF80850A607360F07FA06F8CD
:1004100025EA0805DFF8B880404503D14FF0000811
:1004200017E044E0DFF8AC80404502D14FF001080E
:100430000FE0DFF8A480404502D14FF0020808E049
:10044000DFF89880404502D14FF0030801E04FF0FB
:10045000040808FA06F848EA0508CCF808804D6850
:10046000D9F80060ED034D4601D5164300E09643F0
:100470002E604D68DAF80060AD03554601D516438D
:1004800000E096432E604D68DBF80060ED025D46AB
:1004900001D5164300E096432E604D68DEF80060FB
:1004A000AD02754601D5164300E096432E60641CEC
:1004B0000D682A46E5407FF431AFBDE8F88F0000B3
:1004C0000004014000001110001002400000014033
:1004D00000080140000C01400010014000140140E0
:1004E0000AB1016170470904FBE700000148806818
:1004F00070470000B01D0020024881680278114456
:1005000081607047B01D0020074810B5016841F0B8
:1005100010010160032000F067F80F2000F006F8DA
:1005200000F024F8002010BD0020024070B50D4DF1
:1005300004464FF47A712878B1FBF0F00A49096853
:10054000B1FBF0F000F0BEFA48B9102C07D200223F
:100550002146501E00F028F800206C6070BD01207C
:1005600070BD0000B01D0020BC1D00200C4808B567
:10057000816941F001018161816901F0010100910E
:10058000C16941F08051C161C06900F080500090A4
:100590000448416821F0E06141F00071416008BD0C
:1005A0000010024000000140F0B40E4B1B680C46E6
:1005B000C3F30223C3F10705042D00D90425191D37
:1005C000072901D2002300E0DB1E012606FA05F10F
:1005D000491E214099409E40761E16403143F0BC92
:1005E00000F06DBF0CED00E0064900F0070208685E
:1005F0004FF6FF03184040EA0220034A1043086008
:10060000704700000CED00E00000FA052DE9F0470E
:100610000F46050061D0434E306800F00700B84235
:1006200009D2306820F0070038433060306800F0AD
:100630000700B84251D128683B4C810712D54007CA
:1006400003D5606840F4E06060602878000703D557
:10065000606840F4605060606068A96820F0F00055
:10066000084360602878C00728D06868012810D047
:100670002168022810D0890700292EDA616821F04C
:10068000030101436160FFF731FF804641F2883981
:100690000DE021688903EFE78901EDE7FFF726FF09
:1006A000A0EB0801494502D90320BDE8F087606846
:1006B000696800F00C00B0EB810FEFD1306800F0FA
:1006C0000700B8420BD9306820F00700384330608B
:1006D000306800F00700B84201D00120E5E7287833
:1006E000400705D56068E96820F4E0600843606071
:1006F0002878000706D56068296920F4605040EA30
:10070000C100606000F018F86168084AC1F3031185
:10071000515CC8400649086006480068FFF706FFBC
:100720000020C2E7002002400010024044310008CF
:10073000BC1D0020B41D002012A185B00FC98DE89A
:100740000F0014A0144A006804905168134801F087
:100750000C03042B10D0082B0ED1C1F38343C90323
:100760001DF803000AD5516804AAC1F34041515C49
:100770000A4A5043B0FBF1F005B0704708494843BE
:10078000FAE7000002030405060708090A0B0C0D2E
:100790000E0F1010010200000010024000127A003B
:1007A00000093D002DE9F84F040070D02078C04DBD
:1007B000C00749D06868C0F38100012807D0686885
:1007C000C0F38100022809D16868C00306D52868F3
:1007D000800339D560680028E7D035E06068B0F55F
:1007E000803F0BD010B1B0F5A02F11D0286820F4B5
:1007F00080302860286820F4802002E0286840F4D7
:1008000080302860606890B1FFF770FE06460AE00D
:10081000286840F480202860F0E700BFFFF766FEFC
:10082000801B642873D828688003F7D50CE0FFF795
:100830005DFE064605E000BFFFF758FE801B6428FA
:10084000F0D828688003F7D420789A4E80074FF0BC
:1008500001094FF0000839D5686810F00C0F07D077
:100860006868C0F38100022809D16868C00306D413
:100870002868800714D52069012808D110E0206974
:10088000B0B1C6F80090FFF731FE074605E00AE177
:10089000FFF72CFEC01B0228C4D828688007F7D5B4
:1008A0002868616920F0F80040EAC10028600DE086
:1008B000C6F80080FFF71AFE074604E0FFF716FEB1
:1008C000C01B022823D828688007F7D420780007A7
:1008D0002CD57948A169D9B1C0F80090FFF706FE80
:1008E000074604E0FFF702FEC01B02280FD8686A23
:1008F0008007F7D571484FF4FA510068B0FBF1F06A
:10090000009000BF0098411E0091FAD20EE080E0F6
:10091000C0F80080FFF7EAFD074604E0FFF7E6FDB8
:10092000C01B022875D8686A8007F7D42078400772
:1009300060D5E8690027C00008D4E86940F080501D
:10094000E861E869012700F0805000905C48016888
:10095000C90513D40168834641F480710160FFF733
:10096000C5FD824606E000BFFFF7C0FDA0EB0A0010
:1009700064284ED8DBF80000C005F5D5E0680128F2
:100980000AD008B1052813D0286A20F00100286297
:10099000286A20F0040002E0286A40F00100286282
:1009A000E06841F2883B98B1FFF7A0FD82460BE07A
:1009B000286A40F004002862EEE700BFFFF796FDCA
:1009C000A0EB0A0159455AD8286A8007F6D50CE0F1
:1009D000FFF78CFD824605E0FFF788FDA0EB0A01DA
:1009E00059454CD8286A8007F6D41FB1E86920F031
:1009F0008050E861E06988B36968C1F38101022928
:100A000044D00228C6F8608004D0FFF76FFD04468A
:100A100038E034E0FFF76AFD074604E0FFF766FDC3
:100A2000C01B02282BD828688001F7D4206AB0F5B3
:100A3000803F05D16868A16820F4003008436860F1
:100A4000D4E908010843696821F474110843686017
:100A5000C6F86090FFF74AFD044606E025E000BFB7
:100A6000FFF744FD001B022809D828688001F7D54C
:100A70001BE000BFFFF73AFD001B022802D903204C
:100A8000BDE8F88F28688001F4D40EE00128F7D083
:100A90006868226A00F48031914204D1616A00F4EE
:100AA0007010884201D00120EAE70020E8E700004A
:100AB000001002400000424280044242BC1D00205F
:100AC0000070004010B5401EB0F1807F01D30120BE
:100AD00010BD4FF0E02460610F21601700F0EFFCC3
:100AE0000020A06107202061002010BDFEE72DE955
:100AF000F04104461D4616460F462A2000F01CFC15
:100B0000204600F00EFC304600F00BFC2B2000F0DD
:100B100013FC384600F005FC284600F002FCBDE856
:100B2000F0412C2000F008BC10B514460B460246DC
:100B3000FFF7DDFF2046BDE8104000F0F2BB2DE9D5
:100B4000F0471F4616460C4680465B1E521EDDF8D7
:100B50002090FFF7CCFF08E0454603E0484600F050
:100B6000E0FB6D1CB542F9D3641CBC42F4D3BDE874
:100B7000F087000010B56E4C002204212046FFF7DC
:100B8000AFFC6420FFF7AAFB012204212046FFF7F7
:100B9000A7FC6420FFF7A2FB4FF4FA70FFF79EFB5F
:100BA000112000F0C9FB6420FFF798FB362000F00D
:100BB000C3FB002000F0D4FB3A2000F0BDFB052071
:100BC00000F0CEFBB22000F0B7FB0C2000F0C8FB19
:100BD0000C2000F0C5FB002000F0C2FB332000F029
:100BE000BFFB332000F0BCFBB72000F0A5FB352095
:100BF00000F0B6FBBB2000F09FFB352000F0B0FBFF
:100C0000C02000F099FB2C2000F0AAFBC22000F0CD
:100C100093FB012000F0A4FBC32000F08DFB132008
:100C200000F09EFBC42000F087FB202000F098FB22
:100C3000C62000F081FB0F2000F092FBCA2000F0DC
:100C40007BFB0F2000F08CFBC82000F075FB082018
:100C500000F086FB552000F06FFB902000F080FB39
:100C6000D02000F069FBA42000F07AFBA12000F066
:100C700077FBE02000F060FBD02000F071FB00204B
:100C800000F06EFB062000F06BFB092000F068FB13
:100C90000B2000F065FB2A2000F062FB3C2000F0F6
:100CA0005FFB552000F05CFB4B2000F059FB082057
:100CB00000F056FB162000F053FB142000F050FB10
:100CC000192000F04DFB202000F04AFBE12000F04D
:100CD00033FBD02000F044FB002000F041FB062055
:100CE00000F03EFB092000F03BFB0B2000F038FB3E
:100CF000292000F035FB362000F032FB542000F0B4
:100D00002FFB4B2000F02CFB0D2000F029FB1620C0
:100D100000F026FB142000F023FB212000F020FB34
:100D2000202000F01DFBBDE81040292000F004BB8E
:100D3000000801402DE9FF4F81B00446DDF83C90EA
:100D400000904FEA59074FF00008780700D00120C3
:100D500000EBD70000FB09FB203AD0B203900298C9
:100D6000E21900EB090301462046521E5B1EFFF705
:100D7000BEFE002551E000BFB9F10C0F28D0B9F13B
:100D8000100F2CD0B9F1180F2CD0B9F1200F46D18B
:100D90002649039801EB80105FF0000610F805A0CB
:100DA0004FF0010101FA06F1109801EA0A0100B3BF
:100DB00021B12046049A0299FFF7B6FE0098641C00
:100DC000201AB84224D10298009C401C029023E0D3
:100DD0000398174900EB400001EB8000DCE7154960
:100DE000039803E00398144900EB400001EB001066
:100DF000D2E709B1049800E00E9800F092FA08F1E9
:100E00000100C0B2B0FBF7F1804607FB118048B18A
:100E1000761CF6B2082EC3D36D1C5D45ACD305B06D
:100E2000BDE8F08F4FF00008F6E70000F005002065
:100E3000D8150008000000204C1A00082DE9FE4FCC
:100E40009946DDE90D4615468A460746DDF83080AD
:100E500013E00C2C16D0102C1FD0182C28D0202CCE
:100E60000ED1CDF80080CDE901464B462A465146C9
:100E7000384600F089F92744AD1C28780028E8D1CD
:100E8000BDE8FE8FCDF80080CDE901464B462A46ED
:100E90005146384600F018F8EDE7CDF80080CDE96E
:100EA00001464B462A465146384600F083F8E2E7B1
:100EB000CDF80080CDE901464B462A4651463846DA
:100EC00000F0ECF8D7E700002DE9FF4F83B0804633
:100ED000119D00904FF00009680700D0012000EB41
:100EE000D50000FB05FB05200027029007EB8700DB
:100EF00000EBC7012E48059A10F811301278934282
:100F00004CD100EB41000190417805984078814236
:100F100044D1049808EB050243194046521E5B1E5B
:100F20000499FFF7E4FD002636E00198002400EB69
:100F3000060A12989AF8021000284FF0010000FAF1
:100F400004F001EA000112D021B14046069A04994A
:100F5000FFF7EAFD009808F10108A8EB0000A8429D
:100F600014D10498DDF80080401C049012E009B10F
:100F7000069800E0109800F0D4F909F10100C0B221
:100F8000B0FBF5F1814605FB119070B1641CE4B231
:100F9000082CCED3761CF6B25E45C6D302987F1CD1
:100FA0008742A3D307B0BDE8F08F4FF00009F1E707
:100FB0001C2C00082DE9FF4F83B08046119D009046
:100FC0004FF00009680700D0012000EBD50000FBBE
:100FD00005FB0520002702902F48059A07EB071113
:100FE00010F81130127893424CD100EB410001907F
:100FF000417805984078814244D1049808EB050275
:1010000043194046521E5B1E0499FFF770FD0026EF
:1010100036E00198002400EB060A12989AF80210B4
:1010200000284FF0010000FA04F001EA000112D09C
:1010300021B14046069A0499FFF776FD009808F121
:101040000108A8EB0000A84214D10498DDF8008044
:10105000401C049012E009B1069800E0109800F0DE
:1010600060F909F10100C0B2B0FBF5F1814605FB62
:10107000119070B1641CE4B2082CCED3761CF6B289
:101080005E45C6D302987F1C8742A5D307B0BDE852
:10109000F08F4FF00009F1E79E2C00082DE9FF4F7B
:1010A00083B08046119D00904FF00009680700D082
:1010B000012000EBD50000FB05FB05200027029076
:1010C00007EB870000EB47112E48059A10F8113006
:1010D000127893424CD100EB410001904178059881
:1010E0004078814244D1049808EB050243194046F8
:1010F000521E5B1E0499FFF7FAFC002636E00198A9
:10110000002400EB060A12989AF8021000284FF00B
:10111000010000FA04F001EA000112D021B14046BA
:10112000069A0499FFF700FD009808F10108A8EB62
:101130000000A84214D10498DDF80080401C0490FF
:1011400012E009B1069800E0109800F0EAF809F101
:101150000100C0B2B0FBF5F1814605FB119070B102
:10116000641CE4B2082CCED3761CF6B25E45C6D31E
:1011700002987F1C8742A3D307B0BDE8F08F4FF0E1
:101180000009F1E7482D00082DE9FF4F83B08046A4
:10119000119D00904FF00009680700D0012000EB7E
:1011A000D50000FB05FB0520002702902F48059A7B
:1011B00007EB871110F81130127893424CD100EBF5
:1011C00041000190417805984078814244D10498CB
:1011D00008EB050243194046521E5B1E0499FFF7B7
:1011E00086FC002636E00198002400EB060A1298DF
:1011F0009AF8021000284FF0010000FA04F001EA0A
:10120000000112D021B14046069A0499FFF78CFCE8
:10121000009808F10108A8EB0000A84214D1049836
:10122000DDF80080401C049012E009B1069800E04F
:10123000109800F076F809F10100C0B2B0FBF5F1AA
:10124000814605FB119070B1641CE4B2082CCED32A
:10125000761CF6B25E45C6D302987F1C8742A5D3A2
:1012600007B0BDE8F08F4FF00009F1E7BA2E000893
:101270002DE9FF4F83B00026DDE911B81D468246F7
:101280004FEA58073446B1462AE0281B401EC1B237
:101290000A2000F099F90599B1FBF0F00A21B0FBA2
:1012A000F1F201FB120026B9691E8C4201DA50B13D
:1012B00001263030C2B2CDF800B004FB07A0CDE962
:1012C0000189109B07E0CDF800B0CDE9018904FB4E
:1012D00007A0109B20220499FFF72CFD641CE4B2A8
:1012E000AC42D2D307B0BDE8F08F2DE9FE4F99464E
:1012F000DDE90D6714468A460546DDF830800BE0CF
:10130000CDF800804B4651462846CDE90167FFF7EE
:1013100011FD05EB5605641C2278002AF0D1BDE8CA
:10132000FE8F10B50446C0F3072000F019F8E0B2B4
:10133000BDE8104000F014B870B5084C0546002216
:1013400008212046FFF7CCF8284600F009F820468F
:10135000BDE8704001220821FFF7C2B80008014033
:101360002DE9F0410F4F104E0546002400220121C7
:101370003046FFF7B5F8280601D5012200E000222B
:1013800002213846FFF7ACF8012211463046FFF73C
:10139000A7F86806641C050EE4B2082CE6D3BDE885
:1013A000F081000000080140000C01402DE9F041EF
:1013B00086B0002423480094019402940394816928
:1013C00041F010018161816901F01001049181698E
:1013D00041F020018161816901F02001049181695E
:1013E00041F004018161816901F004010491816986
:1013F00041F0080181618069134F00F008000490FA
:1014000001221E213846FFF76BF8DFF840800122E9
:1014100011464046FFF764F81E2001250326CDE95A
:101420000005CDE9024669463846FEF769FF039696
:101430000095CDE9015469464046FEF761FF06B0CC
:10144000BDE8F0810010024000080140000C01409E
:10145000FEE7FEE770477047FFF74EB830B58FB034
:1014600028216846FEF7D4FE14210AA8FEF7D0FE14
:1014700001210804CDE90010002402940225049102
:10148000CDE907504FF4E01009906846FFF78AF95C
:1014900008B172B6FEE70F20CDE90A054FF480606F
:1014A000CDE90C4002210AA80E94FFF7AFF80028FE
:1014B00001D072B6FEE70FB030BD7047FEE70907F6
:1014C000090E002804DB00F1E02080F800147047CA
:1014D00000F00F0000F1E02080F8141D70470000BC
:1014E0000EB5FFF711F8FFF7B9FFFFF75FFFFFF742
:1014F00041FB00254FF4A0742346F02229462846DC
:101500000095FFF71CFBA1464FF020084FF6FF7433
:101510004FF478471026CDE9004800213B461EA233
:1015200008460295FFF78AFCCDE900463B461DA21E
:10153000282100200295FFF7D8FE0097CDE901464B
:101540000323F02228213020FFF792FECDE9004648
:101550003B4616A2282150200295FFF7C6FE0097B1
:10156000CDE9014603234A4628218020FFF780FE6B
:10157000CDE900463B460DA2282150200295FFF7F9
:10158000B4FECDE900463B460AA246210020029562
:10159000FFF7ABFEBFE70000D6D0BEB0D4B0B5E7D2
:1015A000D7D300004C43445F573A00004C43445F9C
:1015B000483A0000496E637265617365696E672021
:1015C0004E756E3A000000000246012000E05043D4
:1015D000491EC9B2FBD270470000000000000000A5
:1015E00000000000000004040404040000040000E3
:1015F00014140A00000000000000000000000A0AA5
:101600001F0A0A1F0A0A000000040E1505060C1422
:10161000150E0400000012150D152E2C2A120000C4
:101620000000040A0A3615152916000002020100FE
:101630000000000000000000100808040404040476
:10164000080810000204040808080808040402003E
:1016500000000004150E0E15040000000000000834
:10166000083E080800000000000000000000000024
:101670000202010000000000003F00000000000026
:101680000000000000000000000200000020101018
:10169000080804040202010000000E1111111111CA
:1016A000110E00000000040604040404040E0000EF
:1016B00000000E1111080402011F000000000E11AD
:1016C000100C1010110E00000000080C0C0A091F6D
:1016D000081C000000001F01010F1110110E000076
:1016E00000000C12010D1311110E000000001E105D
:1016F000080804040404000000000E11110E11116A
:10170000110E000000000E1111191610090600003C
:1017100000000000040000000004000000000000C1
:101720000004000000040400000010080402020489
:1017300008100000000000003F003F000000000013
:1017400000000204081010080402000000000E113E
:10175000110804040004000000001C22292D2D1D86
:10176000221C0000000004040C0A0A1E12330000B0
:1017700000000F12120E1212120F000000001E11B4
:1017800001010101110E000000000F1212121212CD
:10179000120F000000001F120A0E0A02121F0000A2
:1017A00000001F120A0E0A020207000000001C12AD
:1017B00001013911120C000000003312121E121226
:1017C0001233000000001F0404040404041F00007E
:1017D00000003E080808080808080907000037123A
:1017E0000A060A1212370000000007020202020273
:1017F000223F000000003B1B1B1B15151535000088
:1018000000003B1216161A1A1217000000000E11E3
:1018100011111111110E000000000F12120E020220
:101820000207000000000E1111111117190E180007
:1018300000000F12120E0A121237000000001E11D3
:1018400001060810110F000000001F150404040415
:10185000040E00000000331212121212120C0000CB
:1018600000003312120A0A0C0404000000001515CF
:1018700015150E0A0A0A000000001B0A0A04040AD1
:101880000A1B000000001B0A0A0A0404040E0000E0
:1018900000001F0908040402121F00001C040404B5
:1018A0000404040404041C000002020404040808E4
:1018B000081010000E0808080808080808080E009C
:1018C000040A00000000000000000000000000000A
:1018D000000000000000003F0204000000000000C3
:1018E0000000000000000000000C121C123C000070
:1018F00000030202020E1212120E0000000000008D
:10190000001C1202120C000000181010101C121201
:10191000123C000000000000000C121E021C00001F
:1019200000182404041E0404041E0000000000002B
:10193000003C120C021C221C00030202020E1212B6
:10194000123700000004040000060404040E000026
:1019500000080800000C0808080808070003020235
:10196000021A0A060A13000000070404040404040F
:10197000041F000000000000000F151515150000E1
:1019800000000000000F12121237000000000000DB
:10199000000C1212120C000000000000000F1212C6
:1019A000120E020700000000001C1212121C103858
:1019B00000000000001B06020207000000000000FB
:1019C000001E020C101E000000000004041E04048F
:1019D000041C000000000000001B1212123C00005A
:1019E00000000000001B0A0A0404000000000000C0
:1019F0000015150E0A0A000000000000001B0A0472
:101A00000A1B000000000000003312120C0804033F
:101A100000000000001E0804041E0000180808084A
:101A2000080C08080808180008080808080808082A
:101A30000808080806040404040804040404060052
:101A40001609000000000000000000000000000077
:101A50000000000000000000000000000000000086
:101A60000000000000000000000000000000000076
:101A70000000000000000000000000000000000066
:101A80000000000060006000600060006000600016
:101A90006000400020002000200000000000000046
:101AA0006000600060000000000000000000000016
:101AB00060066006300398018800440000000000C2
:101AC0000000000000000000000000000000000016
:101AD0000000000000000000000000000000000006
:101AE000000000001002100210021002FE07FE07A4
:101AF00008020801080108010801FE07FE070401A9
:101B000004010401040100000000000000000000C6
:101B1000000040004000F00158034C03CC034C008F
:101B200058007000E000C001C00140034C035C039A
:101B30004C034801F000400040000000000000009D
:101B4000000000000E010A01910091009100510077
:101B500051003A00AE03A002500450044804480467
:101B6000480484028403000000000000000000001C
:101B70000000000038006C006C006C006C006C0011
:101B80002C0098071C011A01330133016301E300A3
:101B9000C308C6093C070000000000000000000068
:101BA0000C001C00100010000800040000000000E1
:101BB0000000000000000000000000000000000025
:101BC0000000000000000000000000000000000015
:101BD000000400020001800080004000400020005E
:101BE00020002000200020002000200040004000B5
:101BF00080008000000100020004000000000000DE
:101C00000200040008001000100020002000400026
:101C10004000400040004000400040002000200004
:101C20001000100008000400020000000000000086
:101C300000000000000000004000C0004000460C12
:101C40004E0FD001F0015E0F460C400040004000F6
:101C50000000000000000000000000000000000084
:101C600000000000000000000000400040004000B4
:101C700040004000FE0F4000400040004000400097
:101C80000000000000000000000000000000000054
:101C90000000000000000000000000000000000044
:101CA0000000000000000000000000000000000034
:101CB0000C001C00100010000800040000000000D0
:101CC0000000000000000000000000000000000014
:101CD00000000000FE0700000000000000000000FF
:101CE00000000000000000000000000000000000F4
:101CF00000000000000000000000000000000000E4
:101D000000000000000000000000000000000000D3
:101D10001C001C001C00000000000000000000006F
:101D200000040006000200030001000180008000A2
:101D3000400040006000200020001000100008005B
:101D400008000C0004000600020000000000000073
:101D5000000000000000F00098010C030C030606D0
:101D600006060606060606060606060606060C0310
:101D70000C039801F00000000000000000000000CB
:101D800000000000000040007C0060006000600077
:101D90006000600060006000600060006000600043
:101DA00060006000FC030000000000000000000074
:101DB000000000000000F80084010203060306038F
:101DC000000300018001C000600020001000080234
:101DD00004020602FE0300000000000000000000F4
:101DE0000000000000007800C60086018601800126
:101DF0008001C000700080010001000300030603A1
:101E000006038601F800000000000000000000004A
:101E100000000000000080018001C001A001A001BD
:101E200090018801880184018201FE0F80018001F8
:101E300080018001E00700000000000000000000B9
:101E4000000000000000FC03040004000400040083
:101E50000400F4008C0104030003000306030603DE
:101E600082018401F8000000000000000000000072
:101E7000000000000000E00118030C030C00040047
:101E80000600E60116030E0606060606060604060A
:101E90000C021803F0000000000000000000000029
:101EA000000000000000F8070C0604020401000115
:101EB00000018000800040004000400060006000A1
:101EC00060006000600000000000000000000000F2
:101ED000000000000000F8010C03060606060606D6
:101EE0000C021C03F000C8010C03060606060606D9
:101EF00006060C03F00100000000000000000000D6
:101F0000000000000000F0000C010C0306020606B1
:101F10000606060606078C06780600060003000380
:101F20000C018C017800000000000000000000009F
:101F300000000000000000000000000000000000A1
:101F4000E000E000E00000000000000000000000F1
:101F5000E000E000E00000000000000000000000E1
:101F60000000000000000000000000000000000071
:101F700060006000000000000000000000000000A1
:101F80000000600060004000200020000000000011
:101F9000000000000004000200018000400020005A
:101FA000100008000400080010002000400080001D
:101FB000000100020004000000000000000000001A
:101FC0000000000000000000000000000000000011
:101FD000FE07000000000000FE07000000000000F7
:101FE00000000000000000000000000000000000F1
:101FF00000000000040008001000200040008000E5
:1020000000010002000400020001800040002000E6
:1020100010000800040000000000000000000000A4
:10202000000000000000E0031806040C040C0C0C77
:102030000C0C000780014000400040000000000040
:10204000E000E000E00000000000000000000000F0
:1020500000000000E00018030C02CC0564056605D2
:10206000A605B604B604B604B604B602E4010C0430
:102070000C021803F0000000000000000000000047
:10208000000000000000600060005000D0009000E0
:102090009000880088010801F80104030403040289
:1020A000020202060F0F0000000000000000000006
:1020B000000000000000FE008C030C030C030C0366
:1020C0000C038C01FC000C030C020C060C060C0625
:1020D0000C060C03FE0100000000000000000000E0
:1020E000000000000000E00318030C060C040404C8
:1020F00006000600060006000600060006040C04A2
:102100000C021803F00000000000000000000000B6
:102110000000000000007F008C010C030C030C0683
:102120000C060C060C060C060C060C060C060C0322
:102130000C038C017F000000000000000000000084
:10214000000000000000FF0306030604060406006A
:1021500086008600FE0086008600860006000604D3
:1021600006040602FF03000000000000000000005B
:10217000000000000000FF0306030604060406003A
:1021800086008600FE0086008600860006000600A7
:10219000060006001F000000000000000000000014
:1021A000000000000000F00018010C020C02040204
:1021B0000600060006000600C60F060306030C0311
:1021C0000C031803F00000000000000000000000F5
:1021D0000000000000000F0F0606060606060606B1
:1021E00006060606FE070606060606060606060696
:1021F000060606060F0F00000000000000000000A9
:10220000000000000000FC0360006000600060004F
:1022100060006000600060006000600060006000BE
:1022200060006000FC0300000000000000000000EF
:10223000000000000000F807C000C000C000C0009F
:10224000C000C000C000C000C000C000C000C0008E
:10225000C000C000C000C60066003C0000000000D6
:10226000000000000000CF038601C60046002600E3
:10227000160036002E006E004600C600860086015D
:10228000060106038F0700000000000000000000A8
:102290000000000000001F00060006000600060007
:1022A00006000600060006000600060006000604FA
:1022B00006040602FF03000000000000000000000A
:1022C0000000000000000707860386038E038E03CC
:1022D0004E034E034A035A035A033A0332033203AE
:1022E0003203120387070000000000000000000016
:1022F0000000000000008E0F0C021C021C023402C1
:102300003402640264024402C4028402840384032B
:10231000040304031F02000000000000000000008E
:10232000000000000000F00098010C030C020606FB
:1023300006060606060606060606060606060C023B
:102340000C039801F00000000000000000000000F5
:10235000000000000000FF00060306060606060651
:10236000060606068603FE000600060006000600B6
:10237000060006001F000000000000000000000032
:10238000000000000000F00098010C030C0206069B
:1023900006060606060606060606060676064C022B
:1023A000CC039801F000800700030000000000004B
:1023B000000000000000FF010603060606060606F0
:1023C00006060603FE004600C600860086010603D8
:1023D000060306060F0E00000000000000000000CB
:1023E000000000000000F8020C03060206020600CE
:1023F0000E003C00F800E00380030007020602061E
:1024000006060C03F00100000000000000000000C0
:10241000000000000000FE0762046108610860001F
:1024200060006000600060006000600060006000AC
:1024300060006000F80100000000000000000000E3
:102440000000000000001E070C020C020C020C022F
:102450000C020C020C020C020C020C020C020C020C
:102460000C021801F0000000000000000000000055
:102470000000000000000F070602040104010C0127
:102480000C018800880098009800500050007000EF
:1024900030002000200000000000000000000000CC
:1024A000000000000000F70E6204420446044604E7
:1024B00064026402E402E4029C029C019801980117
:1024C0008801880088000000000000000000000073
:1024D0000000000000009E070C0108011801900098
:1024E000B0006000200060006000D0009000880113
:1024F000080104038E070000000000000000000037
:102500000000000000000F0F060404020C02080186
:102510001801B800B000700060006000600060004A
:1025200060006000F80100000000000000000000F2
:10253000000000000000FC070C02060302018001FD
:102540008000400040002000200010001800080417
:102550000C040402FE030000000000000000000064
:10256000E0032000200020002000200020002000A8
:10257000200020002000200020002000200020005B
:102580002000200020002000E003000000000000E8
:102590000000000004000400080008001000100003
:1025A00010002000200040004000C000800080009B
:1025B000000100010002000200020004000000000F
:1025C0007C004000400040004000400040004000CF
:1025D00040004000400040004000400040004000FB
:1025E00040004000400040007C000000000060000F
:1025F0009000080100000000000000000000000042
:1026000000000000000000000000000000000000CA
:1026100000000000000000000000000000000000BA
:1026200000000000000000000000000000000000AA
:10263000000000000000000000000000000000009A
:1026400000000000000000000000FF0F000000007C
:102650001800600000000000000000000000000002
:10266000000000000000000000000000000000006A
:10267000000000000000000000000000000000005A
:10268000000000000000000000000000000000004A
:10269000F0010C030C030003E0031C030E0306030C
:1026A00006038E0B7C0E00000000000000000000FE
:1026B0000000000008000E000C000C000C000C00D4
:1026C000CC013C031C060C060C060C060C060C0682
:1026D0000C021C03E40100000000000000000000E8
:1026E00000000000000000000000000000000000EA
:1026F000F0008C018C01860106000600060006022F
:102700000C020C01F00000000000000000000000BE
:10271000000000000002C0030003000300030003E8
:1027200078038C030C030603060306030603060363
:1027300004038C0778010000000000000000000086
:102740000000000000000000000000000000000089
:10275000E001180308020C060C06FC070C000C0034
:1027600018041802E0010000000000000000000052
:10277000000000000000C00360063006300030009A
:10278000FE013000300030003000300030003000FA
:1027900030003000FC0100000000000000000000DC
:1027A0000000000000000000000000000000000029
:1027B000F007D8068C018C018C019801F8000C0000
:1027C000FC00CC03060306038E03F80000000000A3
:1027D0000000000008000E000C000C000C000C00B3
:1027E000EC011C030C030C030C030C030C030C0383
:1027F0000C030C039E070000000000000000000016
:1028000000000000000060006000000000004000C8
:102810007C0060006000600060006000600060009C
:1028200060006000FC0300000000000000000000E9
:10283000000000000000C001C00100000000000115
:10284000F001800180018001800180018001800110
:102850008001800180018001CC007C00000000002C
:102860000000000008000E000C000C000C000C0022
:102870008C038C008C004C006C005C008C008C0184
:102880000C010C039E070000000000000000000087
:102890000000000040007C006000600060006000FC
:1028A0006000600060006000600060006000600028
:1028B00060006000FC030000000000000000000059
:1028C0000000000000000000000000000000000008
:1028D0003707EE066606660666066606660666063E
:1028E00066066606FF0F0000000000000000000002
:1028F00000000000000000000000000000000000D8
:10290000EE011C030C030C030C030C030C030C035F
:102910000C030C039E0700000000000000000000F4
:1029200000000000000000000000000000000000A7
:10293000F00098010C0306060606060606060606C3
:102940000C030C03F0000000000000000000000079
:102950000000000000000000000000000000000077
:10296000EE011C030C060C060C060C060C060C06ED
:102970000C031C03EC010C000C003E0000000000E6
:102980000000000000000000000000000000000047
:1029900078028C030C0306030603060306030603F2
:1029A00004038C03780300030003C0070000000049
:1029B0000000000000000000000000000000000017
:1029C0009F03580638061800180018001800180051
:1029D00018001800FF0000000000000000000000C8
:1029E00000000000000000000000000000000000E7
:1029F000F0031C030C020C023800F000C0030403B7
:102A000004038C03FC010000000000000000000033
:102A10000000000000000000200020003000300016
:102A2000FE01300030003000300030003000300057
:102A300030023002E0010000000000000000000051
:102A4000000000000000000000000000000008027C
:102A50008E030C030C030C030C030C030C030C037C
:102A60000C039C077801000000000000000000003B
:102A70000000000000000000000000000000000056
:102A80001E070C020801080118019000B000B000F8
:102A90006000600020000000000000000000000056
:102AA0000000000000000000000000000000000026
:102AB000F70E6204460464026402EC029C01980171
:102AC00098019801080000000000000000000000CC
:102AD00000000000000000000000000000000000F6
:102AE000BC0718011001B00060006000E000900019
:102AF000080108039E07000000000000000000001D
:102B000000000000000000000000000000000000C5
:102B10009E0708010801080190009000B0006000C5
:102B2000600060002000200024001C000000000065
:102B30000000000000000000000000000000000095
:102B4000FC018401C4004400600020003000180231
:102B500008020C03FC01000000000000000000005F
:102B600000038000800080008000800080008000E2
:102B70008000400020004000800080008000800035
:102B800080008000800080000003000040004000C2
:102B90004000400040004000400040004000400035
:102BA0004000400040004000400040004000400025
:102BB0004000400040004000400040000000000095
:102BC0000C00100010001000100010001000100089
:102BD0001000200040002000100010001000100025
:102BE00010001000100010000C00000000001C007D
:102BF0002204C20480030000000000000000000066
:102C000000000000000000000000000000000000C4
:102C1000000000000000000000000000D6D02000EE
:102C200020002000FE03220222022202FE032202D2
:102C3000200020002000BEB0FC010401FC010401C2
:102C4000FC012000FF070401FC01200024013202E6
:102C5000D4B0FE070204FA0402040204FE05520482
:102C600052044A0586050204FE07B5E7100010006D
:102C7000FF0111011101FF0111011101FF011104F7
:102C80001004E007D7D30000FC01800040002000C2
:102C90002000FF0720002000200020003800D6D0B0
:102CA0008000800080008000FC1F8410841084104D
:102CB00084108410FC1F841080008000800080003D
:102CC000BEB0F80F0808F80F0808F80F8000FF7F63
:102CD0000000F80F08080808F80F80008410A220F0
:102CE0004000D4B00000FE3F0220F2270220022064
:102CF000FA2F222122212221122912290A2E022012
:102D0000FE3F0220B5E7800080008000FC1F841099
:102D100084108410FC1F841084108410FC1F8450C5
:102D200080408040007FD7D30000FE1F00080004D1
:102D3000000280018000FF7F800080008000800012
:102D400080008000A0004000D6D0000000000000FD
:102D5000001800000800000800000800080818F823
:102D6000FF1F180818180818180818180818180845
:102D700018180818F8FF1F080808000800000800C5
:102D800000080000080000180000180000180000EB
:102D90000000BEB0000000000000400006C0FF07B9
:102DA000400006C0FF07400006C0FF0740080200C1
:102DB0003000FEFF3F000000C0FF07C00002C0005F
:102DC00002C00002C0FF0380100080110160100EDD
:102DD0003010180C1E30001C00000000D4B00000A1
:102DE00000000000080030F8FF1F08001008C010A5
:102DF000083F10080010080010080013C8FF100852
:102E0000221008221008221008221008211208217E
:102E10001488601648C013280010080010F8FF1F1F
:102E2000080010000000B5E70000000000000018D6
:102E300000000800000800000800F0FF0F10080460
:102E4000100804100804100804F0FF07100804100C
:102E50000804100804100804F0FF07100800000818
:102E60001000081000082000183000F01F000000BB
:102E7000D7D3000000000000000004F0FF0F0000A6
:102E80000600000100C00000280000180000180023
:102E9000001830FEFF7F0018000018000018000026
:102EA0001800001800001800001800001800001892
:102EB00000001F00000C00000000D6D00000000041
:102EC0000000000000800000008001000080010080
:102ED0000080010000800100008001001080010CD2
:102EE000F0FFFF0F308001043080010430800104C6
:102EF00030800104308001043080010430800104FE
:102F000030800104F0FFFF073080010430800104AD
:102F100000800100008001000080010000800100AD
:102F2000008001000080010000800100008001009D
:102F3000008001000080000000000000BEB0000022
:102F4000000000000000000000000001800100FF00
:102F5000FF01000380010003800100FFFF01000367
:102F600080010003800100FFFF010081810000005B
:102F700003000000031CFCFFFF3F000040000003B3
:102F8000C00100FFFF010003C0000003C0000003F8
:102F9000C00000FFFF000001410000040100000E1E
:102FA000710000078101800101076000010E18987F
:102FB000011C04E0011800C0000000000000D4B0B3
:102FC000000000000000000000000008F0FFFF1FEC
:102FD0003000000C3000000C3000100C30FE3F0CB4
:102FE0003004000C3000000C3000000C3000000CED
:102FF0003000C00CF0FFFF0D3030060E3030060CF4
:103000003010060C3010060C3010060C3018860CF0
:103010003018860C3008060D300C860D3006EE0F89
:103020003002FC0D3001000CF000000C3000000CF0
:10303000F0FFFF0F3000000C100000040000000043
:10304000B5E7000000000000000000C0000000C064
:10305000010000C0000000C0000000C0000000C06F
:103060000000E0FFFF0360C0000360C0000360C019
:10307000000360C0000360C0000360C00003E0FF05
:10308000FF0360C0000360C0000360C0000360C0B5
:10309000000360C00003E0FFFF0360C0000160C0E8
:1030A000000000C0000800C0001000C0001000C0F8
:1030B000001800C001380080FF1F00000000000061
:1030C0000000D7D300000000000000000000000056
:1030D00000000003C0FFFF07000080070000C000E1
:1030E000000060000000180000000C0000800300D9
:1030F0000080030000800100008001080080011CA6
:10310000FCFFFF3F00800100008001000080010003
:1031100000800100008001000080010000800100AB
:10312000008001000080010000800100008001009B
:103130000080010000FC010000E0000000400000F1
:103140000000000000000000000000000102030475
:10315000060708097431000800000020C01D0000A7
:1031600028010008543D0008C01D00206006000032
:103170008C0100080210000142080110050000182F
:10318000180EC005486C24122020082424247F1225
:10319000121204312F200C1C2A2A0A0C1828282A63
:1031A0002A1C36300D0022251515152A5854545462
:1031B0002230120C2D10080A76252911916E5EA07E
:1031C00005060604034E4005402010107220091029
:1031D000102040000002040A2101500508080402E2
:1031E0009130056B1C1C6B5C71A1427FA3B1B9A12E
:1031F0005B0211FED92306061A3005804040207478
:103200003004040402604004182442014324186F6F
:10321000560E0233083EA2123C1B11326005080410
:10322000427E103409201820404042221C10300CED
:10323000203028242422227E2020787B80077E02D2
:1032400002021A262023382410816060047E222284
:10325000F37160322485733C0090640764584040E9
:10326000241C73358A510645A455AA460442152AE2
:103270003704083F41FE527F0431F7411B3125617D
:1032800070264676615010051C225A5501622DD0D9
:10329000300C0808181414243C224242E7E01006BF
:1032A0001F2222221E0E300442221FE020057C42F3
:1032B0004201016500571F22405120B00C3F4212CD
:1032C000121E12120242423F10440402020740132F
:1032D00022223E54047121222026E77F227E0541CE
:1032E00070C73E0880737C100113110F10340C77E7
:1032F00022120A0E0A12122222770C5307020142EE
:1033000042F313773601222A01326B60500CE346F8
:10331000464A4A525252626247F04241015180226B
:103320003FBD733E02A0512060064D53321C602009
:10333000223E6F6742C7001B0204011135456D6ACA
:10334000493091D03512623C1054072224241414C1
:1033500018F0136B49011404555536575120540881
:1033600024241818182424009006772222141450BC
:103370002B7E21AF470404509378080129714C0536
:10338000020204043E031A209587001E2E18041022
:10339000101E7E0319440001000512FF00060818E4
:1033A0003C083C4278444242FC37035B0302C07352
:1033B000261A2017384470334438D0200560404026
:1033C000402E90044264D8401D060355009C06F030
:1033D0008808087E5003394415FD47023C222160CD
:1033E0008B3A46009C060C0C00000E80031F303008
:1033F000440332200153221E30580672120A16125C
:1034000000DA0E30359422920172B7D0923B606D93
:1034100074036D700329142E1BA0035B221E02157A
:103420006621D05005447840E0101004774C040128
:10343000821FC0580542023C40002DA10449B472CD
:1034400030E02A63D47762DC6825E49E14B1042A54
:10345000EB02590025F43A7602C26E3019316190C0
:103460001F7E2225052E44800436C00A461010D047
:1034700004C000100115D03D4C054DC50500075492
:1034800006000C32C20001A3C00102A38000026149
:1034900024E8098001C003C003800177001035E0F3
:1034A0001CE01CF01E700E380718030801848215FA
:1034B000065102A007FE7FFE7F100802211263085A
:1034C00004020D110D061015010001C0076019104E
:1034D0003118311839183938017001E0AE100C80FC
:1034E00007000F001D003900311C0220090C310CAF
:1034F00011180DE0072EF200C6100B1C10361863D1
:1035000008630C630402120202100B01361D9C3783
:103510008022806340021220020C091430631022C2
:103520001836081C7D036006F00098018C02200EFE
:1035300000CC007800183E1C083608320852F00C07
:10354000C304C303834306438E26784010041C0043
:103550003C0212300204063010000C0006BD1004BC
:103560004000203B12083D12043F220302C38001A9
:10357000024116111E1945112A1210327D600612E1
:103580000237211312301530046000C002E14041BF
:103590001612600221A6120869061202C5140F0154
:1035A0008003800300011C713C79783DC06A4009AA
:1035B000C007783D3C791C711A09103C0512CA817C
:1035C00002C3FC7F10093EE6052E6A0F4AFE7F64A7
:1035D000033618E8061218C016609021957618C6B2
:1035E0001602B225BA157601141FFDC20310080792
:1035F000600C3018183002E004200C600223182000
:103600001A0407163018600CC0077AD4048001F839
:10361000F60110020C0514C003F81F0003100CE0A3
:1036200007101C0818043004300C02194D5A1827D2
:103630001D4E0419A11DDF0300081608200430FCEC
:103640001FFC40200803180E0C0C0C1802152B153B
:103650009F1405C003000E35299931540409150C37
:10366000100C18180CE0035F120C2E100F0E000F38
:10367000800E800E400E600E200E10021004080E08
:10368000040215C8820E020613C0D61406F03FF0DD
:103690003F10642D490310060800C807286D320842
:1036A0007C618000081504180418080CF080540A86
:1036B000800FC0102030103018C584088C0F6C1893
:1036C0003C301C82158404051630306018802C08AC
:1036D000F83FF83F1C100CE3043604384E02040394
:1036E0004D8C0592C00205168026301F352A140B1A
:1036F0001C3038187008E007B0075440061C063824
:10370000063002051A4015806008040C080C1806E3
:10371000102E340906380C3C1836F031CC11021545
:103720009E0C0523060C03F086030D122C060D16C5
:1037300040060D1390060115E83D9C041D96068E6B
:1037400040BF045D3F065D97041D00052DAE042DAE
:10375000A80429451A183D2DD4043D02055E06E94A
:10376000040F2B2000FA030D2206046159916C41CD
:103770007D39CA619461A50D1180071807073018BB
:1037800008300828321C021D8D051E1CE703AE01FF
:103790008407051C401D00071A187E1009200C2FF5
:1037A0008C4D864CC6021005664C664402122602F9
:1037B0001C0715CC1C0C400804040A1630805DFA66
:1037C0000730064001600320021A30092102180464
:1037D000F80F08171608FD2D00030C051506181F15
:1037E0007C2C053C0607181C183880042D8404190D
:1037F0006A1FF80707091D8E0419FA61021DA1044A
:103800000315FE0FC03004276038C02404400C406C
:10381000C7C1022116021A0CC01F00FE40043170FD
:103820002102F2600221941E10990B0F150EFE006A
:103830000353FE3FAC1A40EB1208021C040CF80FB5
:103840008D04210A49FF12400215420B16FE3F3239
:10385000131870241004C018802C22106C1FF81F3D
:10386000090C210AA200020E167E820910051370AF
:103870001C102EB4050C200C20003EFCBA031DD6F3
:10388000033DC2050E160840044F3F7E3C05A102D1
:103890000310FC1F1402153F810F1EF81FFC054D7D
:1038A00002060D170006F67FB5011702BC080E06CA
:1038B0000E038E01FC32041B7E7C343A0863100533
:1038C00002180198021809D801B8033803180775BF
:1038D000120EB9461CDE0F147EFC7204B67E660121
:1038E0001102051DC030051FF81C3802433C34018D
:1038F000400536743264024331C40200071530C4F7
:103900003084309F8010081F7C1C103C1034023023
:103910001974106410E410C410C4118411841304C9
:103920001304170416041E041C020C0415181F1897
:10393000C0032E03C0052F0810EA06E30660021933
:10394000161B300854080416300CC0C0360F20BDBA
:103950006C0319C2F50809178031801D6407000443
:1039600010300C20801C0BE4612C331C32181630F4
:103970000ED6090C06224C007C0038000444049842
:103980000318C045C235C40B157E78401E27B50606
:10399000117C1D00033DB8051E7812081005800F2C
:1039A000001E6A100570006004021E08C6030C04A5
:1039B000153818C84004080B1CFC3F8C2184618218
:1039C000418241C00E16E040031E7C6008011D02CA
:1039D0000C05160808380440071F3EF864091D4B03
:1039E000121D0308310211AF11022005E00CC004C2
:1039F000023DFE0A3D1C0B0D16C60A2011DFF386A0
:103A000061862186218C210C218C238C1302300AA3
:103A10004C1358125816580E38021D010922040280
:103A20000D1500031C063E180838087F094C0704D2
:103A300070026002E0C80D1D900B20094003400792
:103A400020062006C12DD7040E153EC0051A7EC0E3
:103A50001DAE041D85062404300C706F2302C002C5
:103A60000527403FF83FBF031C040C040E640C3FC5
:103A70000700EE0B1D52061F00E080071E70860730
:103A800016381C1DE008FF18FE40042FC03FCE076B
:103A9000012C02DEC086053E08FE036DC40C2260C8
:103AA000222D38092DFA0C2DFC0C3E029C043E04FC
:103AB000FC0C8129693A2120012D029EFCF7141C7F
:103AC000068007C00620E714026D00015FFFFFDFDC
:103AD000102D2C09024C015C1C05F00318068E0BFE
:103AE0001D8B033C06800F700C1CFB0911020C0699
:103AF000124C0C4FF838DC0C1E10A903BD6E05CC1F
:103B0000070FD81838303884070C0823203830784D
:103B100018C80790101F0770AD0A1DD00A2E180E86
:103B20000431022D5E030E17100007D1815005E00D
:103B30001B301C4071020009240818181C307AE060
:103B400009808D8E0543FC3F8221800E1770C00BCB
:103B50001007003E80C380C0013DAC0BAFFC1FB21C
:103B60000BA1020723F80F002C0477306CAF08215B
:103B7000011E10F6052FF0073C084C07F00FF03F30
:103B80000870500C0405183838E00F803698800211
:103B90001118020D1640075DA0045D0E0A0E2FF8E5
:103BA00000081DA8057E3816060C041C10801F8D09
:103BB000071D5A09AE064A0DF940223E221D3E0657
:103BC0003D08085D06084D40060D14800A0D21BC15
:103BD0000E011DC0BD4E04000712EE1C9C338C313B
:103BE000020F20DE7BEA0F198D052F80FD00031EDA
:103BF0001C0E0BBE30C40F0E1A30000BC180200407
:103C00009E0F5880CE20040B2D80030F1E98070AAC
:103C1000083D8E0B2C0423303CCE0B920C021F0867
:103C200030D3036C043CE033140F021700CA3C0A83
:103C300060007E3C60666061E0FE05C1020E23FE0E
:103C400000044D0E081DF2031DFD073D08084E1C23
:103C50005A100C04191C18EC40036D2C0F0E14E0C4
:103C600080030C072120C02080110080030405126E
:103C700010201E3CBC15000C0422F4E013000F2F92
:103C80007E3CCE0A8D90076D92079EC05015051A96
:103C9000001C07DFF78E630C2308081C062398130B
:103CA00098130408200416700E020C05222004202C
:103CB000041C063C09FC3E70087004E004C2071DA9
:103CC0007A133C064007600620411103233E7EC064
:103CD0003D8E0B1D0C081D52082D7D093D0C085E04
:103CE000024E143D181600041A4C003C801E1F3072
:103CF0000E5C040E0406080815921C0470203000A7
:103D0000060F111C1800123E30BA0F01100211707C
:103D10003D9D14011202120836DD2E140131025DA0
:103D200039122D0F150110021E4040080213401ACF
:103D30002D6F155E0CF5040C0B30C400864002613B
:103D40000022001C121421817D370800040024F495
:043D5000000000006F
:04000005080000ED02
:00000001FF
